{
  "_format": "hh-sol-artifact-1",
  "contractName": "MemeArtCollectionPortal",
  "sourceName": "contracts/MemeArtCollectionPortal.sol",
  "abi": [
    {
      "inputs": [],
      "stateMutability": "nonpayable",
      "type": "constructor"
    },
    {
      "anonymous": false,
      "inputs": [
        {
          "components": [
            {
              "internalType": "string",
              "name": "imgUrl",
              "type": "string"
            },
            {
              "internalType": "string",
              "name": "title",
              "type": "string"
            },
            {
              "internalType": "string",
              "name": "description",
              "type": "string"
            }
          ],
          "indexed": false,
          "internalType": "struct MemeArtCollectionPortal.Meme",
          "name": "meme",
          "type": "tuple"
        },
        {
          "indexed": true,
          "internalType": "address",
          "name": "from",
          "type": "address"
        },
        {
          "indexed": false,
          "internalType": "uint256",
          "name": "timestamp",
          "type": "uint256"
        }
      ],
      "name": "NewPost",
      "type": "event"
    },
    {
      "inputs": [],
      "name": "getPosts",
      "outputs": [
        {
          "components": [
            {
              "components": [
                {
                  "internalType": "string",
                  "name": "imgUrl",
                  "type": "string"
                },
                {
                  "internalType": "string",
                  "name": "title",
                  "type": "string"
                },
                {
                  "internalType": "string",
                  "name": "description",
                  "type": "string"
                }
              ],
              "internalType": "struct MemeArtCollectionPortal.Meme",
              "name": "meme",
              "type": "tuple"
            },
            {
              "internalType": "address",
              "name": "author",
              "type": "address"
            },
            {
              "internalType": "uint256",
              "name": "timestamp",
              "type": "uint256"
            }
          ],
          "internalType": "struct MemeArtCollectionPortal.Post[]",
          "name": "",
          "type": "tuple[]"
        }
      ],
      "stateMutability": "view",
      "type": "function"
    },
    {
      "inputs": [
        {
          "components": [
            {
              "internalType": "string",
              "name": "imgUrl",
              "type": "string"
            },
            {
              "internalType": "string",
              "name": "title",
              "type": "string"
            },
            {
              "internalType": "string",
              "name": "description",
              "type": "string"
            }
          ],
          "internalType": "struct MemeArtCollectionPortal.Meme",
          "name": "meme",
          "type": "tuple"
        }
      ],
      "name": "publishPost",
      "outputs": [],
      "stateMutability": "nonpayable",
      "type": "function"
    }
  ],
  "bytecode": "0x60806040523480156200001157600080fd5b506200004160405180606001604052806024815260200162001017602491396200004760201b620004e51760201c565b620001db565b620000e7816040516024016200005e919062000154565b6040516020818303038152906040527f41304fac000000000000000000000000000000000000000000000000000000007bffffffffffffffffffffffffffffffffffffffffffffffffffffffff19166020820180517bffffffffffffffffffffffffffffffffffffffffffffffffffffffff8381831617835250505050620000ea60201b60201c565b50565b60008151905060006a636f6e736f6c652e6c6f679050602083016000808483855afa5050505050565b6000620001208262000178565b6200012c818562000183565b93506200013e81856020860162000194565b6200014981620001ca565b840191505092915050565b6000602082019050818103600083015262000170818462000113565b905092915050565b600081519050919050565b600082825260208201905092915050565b60005b83811015620001b457808201518184015260208101905062000197565b83811115620001c4576000848401525b50505050565b6000601f19601f8301169050919050565b610e2c80620001eb6000396000f3fe608060405234801561001057600080fd5b50600436106100365760003560e01c806341f3004a1461003b578063f4c7caad14610059575b600080fd5b610043610075565b6040516100509190610b16565b60405180910390f35b610073600480360381019061006e9190610892565b610342565b005b60606100bb6040518060400160405280601781526020017f5765206861766520256420746f74616c20706f7374732100000000000000000081525060008054905061057e565b6000805480602002602001604051908101604052809291908181526020016000905b8282101561033957838290600052602060002090600502016040518060600160405290816000820160405180606001604052908160008201805461012090610d24565b80601f016020809104026020016040519081016040528092919081815260200182805461014c90610d24565b80156101995780601f1061016e57610100808354040283529160200191610199565b820191906000526020600020905b81548152906001019060200180831161017c57829003601f168201915b505050505081526020016001820180546101b290610d24565b80601f01602080910402602001604051908101604052809291908181526020018280546101de90610d24565b801561022b5780601f106102005761010080835404028352916020019161022b565b820191906000526020600020905b81548152906001019060200180831161020e57829003601f168201915b5050505050815260200160028201805461024490610d24565b80601f016020809104026020016040519081016040528092919081815260200182805461027090610d24565b80156102bd5780601f10610292576101008083540402835291602001916102bd565b820191906000526020600020905b8154815290600101906020018083116102a057829003601f168201915b50505050508152505081526020016003820160009054906101000a900473ffffffffffffffffffffffffffffffffffffffff1673ffffffffffffffffffffffffffffffffffffffff1673ffffffffffffffffffffffffffffffffffffffff168152602001600482015481525050815260200190600101906100dd565b50505050905090565b6103816040518060400160405280601481526020017f257320686173207361766564206120706f7374210000000000000000000000008152503361061a565b600060405180606001604052808381526020013373ffffffffffffffffffffffffffffffffffffffff16815260200142815250908060018154018082558091505060019003906000526020600020906005020160009091909190915060008201518160000160008201518160000190805190602001906104029291906106df565b50602082015181600101908051906020019061041f9291906106df565b50604082015181600201908051906020019061043c9291906106df565b50505060208201518160030160006101000a81548173ffffffffffffffffffffffffffffffffffffffff021916908373ffffffffffffffffffffffffffffffffffffffff1602179055506040820151816004015550503373ffffffffffffffffffffffffffffffffffffffff167f0becbed2bcc264c67ac2b4a15f5e7a59eb0796b175a0a3cee3ea879a11a7a8d182426040516104da929190610bba565b60405180910390a250565b61057b816040516024016104f99190610b38565b6040516020818303038152906040527f41304fac000000000000000000000000000000000000000000000000000000007bffffffffffffffffffffffffffffffffffffffffffffffffffffffff19166020820180517bffffffffffffffffffffffffffffffffffffffffffffffffffffffff83818316178352505050506106b6565b50565b6106168282604051602401610594929190610b8a565b6040516020818303038152906040527f9710a9d0000000000000000000000000000000000000000000000000000000007bffffffffffffffffffffffffffffffffffffffffffffffffffffffff19166020820180517bffffffffffffffffffffffffffffffffffffffffffffffffffffffff83818316178352505050506106b6565b5050565b6106b28282604051602401610630929190610b5a565b6040516020818303038152906040527f319af333000000000000000000000000000000000000000000000000000000007bffffffffffffffffffffffffffffffffffffffffffffffffffffffff19166020820180517bffffffffffffffffffffffffffffffffffffffffffffffffffffffff83818316178352505050506106b6565b5050565b60008151905060006a636f6e736f6c652e6c6f679050602083016000808483855afa5050505050565b8280546106eb90610d24565b90600052602060002090601f01602090048101928261070d5760008555610754565b82601f1061072657805160ff1916838001178555610754565b82800160010185558215610754579182015b82811115610753578251825591602001919060010190610738565b5b5090506107619190610765565b5090565b5b8082111561077e576000816000905550600101610766565b5090565b600061079561079084610c0f565b610bea565b9050828152602081018484840111156107ad57600080fd5b6107b8848285610ce2565b509392505050565b600082601f8301126107d157600080fd5b81356107e1848260208601610782565b91505092915050565b6000606082840312156107fc57600080fd5b6108066060610bea565b9050600082013567ffffffffffffffff81111561082257600080fd5b61082e848285016107c0565b600083015250602082013567ffffffffffffffff81111561084e57600080fd5b61085a848285016107c0565b602083015250604082013567ffffffffffffffff81111561087a57600080fd5b610886848285016107c0565b60408301525092915050565b6000602082840312156108a457600080fd5b600082013567ffffffffffffffff8111156108be57600080fd5b6108ca848285016107ea565b91505092915050565b60006108df8383610aa8565b905092915050565b6108f081610ca6565b82525050565b6108ff81610ca6565b82525050565b600061091082610c50565b61091a8185610c73565b93508360208202850161092c85610c40565b8060005b85811015610968578484038952815161094985826108d3565b945061095483610c66565b925060208a01995050600181019050610930565b50829750879550505050505092915050565b600061098582610c5b565b61098f8185610c84565b935061099f818560208601610cf1565b6109a881610de5565b840191505092915050565b60006109be82610c5b565b6109c88185610c95565b93506109d8818560208601610cf1565b6109e181610de5565b840191505092915050565b60006060830160008301518482036000860152610a09828261097a565b91505060208301518482036020860152610a23828261097a565b91505060408301518482036040860152610a3d828261097a565b9150508091505092915050565b60006060830160008301518482036000860152610a67828261097a565b91505060208301518482036020860152610a81828261097a565b91505060408301518482036040860152610a9b828261097a565b9150508091505092915050565b60006060830160008301518482036000860152610ac582826109ec565b9150506020830151610ada60208601826108e7565b506040830151610aed6040860182610af8565b508091505092915050565b610b0181610cd8565b82525050565b610b1081610cd8565b82525050565b60006020820190508181036000830152610b308184610905565b905092915050565b60006020820190508181036000830152610b5281846109b3565b905092915050565b60006040820190508181036000830152610b7481856109b3565b9050610b8360208301846108f6565b9392505050565b60006040820190508181036000830152610ba481856109b3565b9050610bb36020830184610b07565b9392505050565b60006040820190508181036000830152610bd48185610a4a565b9050610be36020830184610b07565b9392505050565b6000610bf4610c05565b9050610c008282610d56565b919050565b6000604051905090565b600067ffffffffffffffff821115610c2a57610c29610db6565b5b610c3382610de5565b9050602081019050919050565b6000819050602082019050919050565b600081519050919050565b600081519050919050565b6000602082019050919050565b600082825260208201905092915050565b600082825260208201905092915050565b600082825260208201905092915050565b6000610cb182610cb8565b9050919050565b600073ffffffffffffffffffffffffffffffffffffffff82169050919050565b6000819050919050565b82818337600083830152505050565b60005b83811015610d0f578082015181840152602081019050610cf4565b83811115610d1e576000848401525b50505050565b60006002820490506001821680610d3c57607f821691505b60208210811415610d5057610d4f610d87565b5b50919050565b610d5f82610de5565b810181811067ffffffffffffffff82111715610d7e57610d7d610db6565b5b80604052505050565b7f4e487b7100000000000000000000000000000000000000000000000000000000600052602260045260246000fd5b7f4e487b7100000000000000000000000000000000000000000000000000000000600052604160045260246000fd5b6000601f19601f830116905091905056fea26469706673582212205fa9aaf423390e7044f1af9a390c375117934b85b55786fc55effe65979ddafa64736f6c63430008040033596f20796f2c204920616d206120636f6e747261637420616d204920616d20736d617274",
  "linkReferences": {},
  "deployedLinkReferences": {}
}