{
  "_format": "hh-sol-artifact-1",
  "contractName": "MemeArtCollectionPortal",
  "sourceName": "contracts/MemeArtCollectionPortal.sol",
  "abi": [
    {
      "inputs": [],
      "stateMutability": "nonpayable",
      "type": "constructor"
    },
    {
      "inputs": [],
      "name": "getTotalMemes",
      "outputs": [
        {
          "internalType": "string[]",
          "name": "",
          "type": "string[]"
        }
      ],
      "stateMutability": "view",
      "type": "function"
    },
    {
      "inputs": [
        {
          "internalType": "string",
          "name": "meme",
          "type": "string"
        }
      ],
      "name": "uploadMeme",
      "outputs": [],
      "stateMutability": "nonpayable",
      "type": "function"
    }
  ],
  "bytecode": "0x608060405234801561001057600080fd5b5061003c604051806060016040528060248152602001610b286024913961004160201b6102101760201c565b6101c4565b6100dd816040516024016100559190610142565b6040516020818303038152906040527f41304fac000000000000000000000000000000000000000000000000000000007bffffffffffffffffffffffffffffffffffffffffffffffffffffffff19166020820180517bffffffffffffffffffffffffffffffffffffffffffffffffffffffff83818316178352505050506100e060201b60201c565b50565b60008151905060006a636f6e736f6c652e6c6f679050602083016000808483855afa5050505050565b600061011482610164565b61011e818561016f565b935061012e818560208601610180565b610137816101b3565b840191505092915050565b6000602082019050818103600083015261015c8184610109565b905092915050565b600081519050919050565b600082825260208201905092915050565b60005b8381101561019e578082015181840152602081019050610183565b838111156101ad576000848401525b50505050565b6000601f19601f8301169050919050565b610955806101d36000396000f3fe608060405234801561001057600080fd5b50600436106100365760003560e01c80637c051f421461003b578063e20645a614610057575b600080fd5b61005560048036038101906100509190610515565b610075565b005b61005f6100f3565b60405161006c919061066f565b60405180910390f35b6000819080600181540180825580915050600190039060005260206000200160009091909190915090805190602001906100b092919061040a565b506100f06040518060400160405280601481526020017f2573206861732073617665642061206d656d6521000000000000000000000000815250336102a9565b50565b60606101396040518060400160405280601781526020017f5765206861766520256420746f74616c206d656d657321000000000000000000815250600080549050610345565b6000805480602002602001604051908101604052809291908181526020016000905b8282101561020757838290600052602060002001805461017a9061084d565b80601f01602080910402602001604051908101604052809291908181526020018280546101a69061084d565b80156101f35780601f106101c8576101008083540402835291602001916101f3565b820191906000526020600020905b8154815290600101906020018083116101d657829003601f168201915b50505050508152602001906001019061015b565b50505050905090565b6102a6816040516024016102249190610691565b6040516020818303038152906040527f41304fac000000000000000000000000000000000000000000000000000000007bffffffffffffffffffffffffffffffffffffffffffffffffffffffff19166020820180517bffffffffffffffffffffffffffffffffffffffffffffffffffffffff83818316178352505050506103e1565b50565b61034182826040516024016102bf9291906106b3565b6040516020818303038152906040527f319af333000000000000000000000000000000000000000000000000000000007bffffffffffffffffffffffffffffffffffffffffffffffffffffffff19166020820180517bffffffffffffffffffffffffffffffffffffffffffffffffffffffff83818316178352505050506103e1565b5050565b6103dd828260405160240161035b9291906106e3565b6040516020818303038152906040527f9710a9d0000000000000000000000000000000000000000000000000000000007bffffffffffffffffffffffffffffffffffffffffffffffffffffffff19166020820180517bffffffffffffffffffffffffffffffffffffffffffffffffffffffff83818316178352505050506103e1565b5050565b60008151905060006a636f6e736f6c652e6c6f679050602083016000808483855afa5050505050565b8280546104169061084d565b90600052602060002090601f016020900481019282610438576000855561047f565b82601f1061045157805160ff191683800117855561047f565b8280016001018555821561047f579182015b8281111561047e578251825591602001919060010190610463565b5b50905061048c9190610490565b5090565b5b808211156104a9576000816000905550600101610491565b5090565b60006104c06104bb84610738565b610713565b9050828152602081018484840111156104d857600080fd5b6104e384828561080b565b509392505050565b600082601f8301126104fc57600080fd5b813561050c8482602086016104ad565b91505092915050565b60006020828403121561052757600080fd5b600082013567ffffffffffffffff81111561054157600080fd5b61054d848285016104eb565b91505092915050565b600061056283836105ee565b905092915050565b610573816107cf565b82525050565b600061058482610779565b61058e818561079c565b9350836020820285016105a085610769565b8060005b858110156105dc57848403895281516105bd8582610556565b94506105c88361078f565b925060208a019950506001810190506105a4565b50829750879550505050505092915050565b60006105f982610784565b61060381856107ad565b935061061381856020860161081a565b61061c8161090e565b840191505092915050565b600061063282610784565b61063c81856107be565b935061064c81856020860161081a565b6106558161090e565b840191505092915050565b61066981610801565b82525050565b600060208201905081810360008301526106898184610579565b905092915050565b600060208201905081810360008301526106ab8184610627565b905092915050565b600060408201905081810360008301526106cd8185610627565b90506106dc602083018461056a565b9392505050565b600060408201905081810360008301526106fd8185610627565b905061070c6020830184610660565b9392505050565b600061071d61072e565b9050610729828261087f565b919050565b6000604051905090565b600067ffffffffffffffff821115610753576107526108df565b5b61075c8261090e565b9050602081019050919050565b6000819050602082019050919050565b600081519050919050565b600081519050919050565b6000602082019050919050565b600082825260208201905092915050565b600082825260208201905092915050565b600082825260208201905092915050565b60006107da826107e1565b9050919050565b600073ffffffffffffffffffffffffffffffffffffffff82169050919050565b6000819050919050565b82818337600083830152505050565b60005b8381101561083857808201518184015260208101905061081d565b83811115610847576000848401525b50505050565b6000600282049050600182168061086557607f821691505b60208210811415610879576108786108b0565b5b50919050565b6108888261090e565b810181811067ffffffffffffffff821117156108a7576108a66108df565b5b80604052505050565b7f4e487b7100000000000000000000000000000000000000000000000000000000600052602260045260246000fd5b7f4e487b7100000000000000000000000000000000000000000000000000000000600052604160045260246000fd5b6000601f19601f830116905091905056fea2646970667358221220ec53691d4bf3f8db653e45082d5fdbec8eb592a7f311c155569ee901395a0e2964736f6c63430008040033596f20796f2c204920616d206120636f6e747261637420616d204920616d20736d617274",
  "linkReferences": {},
  "deployedLinkReferences": {}
}